S00F00004C6F52615F52582E737265639E
S11300000C945A000C9477000C9477000C947700AD
S11300100C9477000C9477000C9477000C94770080
S11300200C9477000C9477000C9477000C94770070
S11300300C9477000C9477000C9477000C94770060
S11300400C9477000C9477000C94FC020C947700C9
S11300500C9477000C9477000C9477000C94770040
S11300600C9477000C9477000C9477000C94770030
S11300700C9477000C9477000C9477000C94770020
S11300800C9477000C9477000C9477000C94770010
S11300900C9477000C9477000C9477000C94770000
S11300A00C9477000C9477000C9477000C947700F0
S11300B00C94770011241FBECFEFD8E0DEBFCDBF74
S11300C011E0A0E0B1E0E2ECF6E002C005900D9290
S11300D0A633B107D9F721E0A6E3B1E001C01D9230
S11300E0AD3DB207E1F70E9417020C945F030C9434
S11300F000008CE08DB986E087B980EE8AB981E092
S113010084B9729A429A28985F9A8BB18F798BB985
S113011008958BB180728093A101882311F05D98BA
S113012008955D9A089528985F9A089542983A9898
S1130130089589E591E09093C6018093C50185EA0D
S113014091E09093DB018093DA0182E0809348018F
S11301500E94B60208959091A201892F8270809323
S11301604901882309F49BC08091580181708093D0
S11301704901811194C08091D701823009F445C0AE
S113018028F4882361F08130C9F00895843009F49B
S113019061C008F449C0853009F464C008950E9420
S11301A089000E9493008AE08093C7011092A30102
S11301B08091D7018F5F8093D70108958091A30127
S11301C0A9E5B1E0E82FF0E0E050FF4F90819C9367
S11301D09091C701E1E0E80FF0E0E050FF4F20818B
S11301E011962C938E5F8093A3018EEF890F8093D9
S11301F0C7010E9499008091C701811150C080916C
S1130200D7018F5F8093D7010895E9E5F1E082E19A
S1130210808311821092A6010E9499008091D701D7
S11302208F5F8093D7010895E5EAF1E081818074BE
S11302308183811104C082E08093D70108958AE00C
S11302408093C7011092A3011092590184E0809316
S1130250D70108950E9499008091D7018F5F809300
S1130260D70108958091A301E82FF0E0E65BFE4FEB
S11302702091A60120838F5F8093A3018091C70101
S113028081508093C701882321F084E08093D701B3
S1130290089586E08093D7019D7F9093A2010895ED
S11302A081E0809349010E947E028091580181700F
S11302B0809349018111F7CF089589E591E09093E6
S11302C0C6018093C50185EA91E09093DB01809398
S11302D0DA0182E0809348010E94B6020E94500134
S11302E00895CF93DF9380E0C9E5D1E0E82FF0E0F3
S11302F0E65FFE4F90819883E1E0E80FF0E0E65F6F
S1130300FE4F908199838E5F8093D8010E945D0196
S11303108091D801863250F3DF91CF910895EAE4B9
S1130320F1E0208181819281382F320F390F41858C
S1130330341B3093A101311179C0E6E3F1E039E2D5
S1130340239F312D112432953F7040E3430F4083A6
S113035044E6349F201911243DEC239F312D1124B0
S113036036953695369540E3430F4183330F432F3B
S1130370440F440F340F231B20934A01205D228332
S113038020E22583282F207820934901222319F085
S11303902DE220933B01E6E3F1E039E2839F212D36
S11303A0112422952F7040E3420F468364E6269F72
S11303B0801911242DEC829F412D112446954695D8
S11303C0469550E3540F5783440F542F550F550F40
S11303D0450F841BAAE4B1E011968C931197805DBC
S11303E08087939F812D112482958F7030E3380F7D
S11303F03587869F90191124929F812D112486950B
S1130400869586958093A10120E3280F2687880F7F
S1130410282F220F220F820F981B12969C93905D17
S113042097878091A20188608093A2010895E1E6F4
S1130430F0E080E8808310820E9479000E947202BA
S11304400E941E030E94D602789483E08093DC010C
S11304500E94DD028091DC018111FACF0E94960096
S113046083E08093DC010E94DD028091DC01811134
S1130470FACF0E94710185E08093DC010E94DD02C5
S11304808091DC018111FACF1092D70182E0809330
S1130490A201E6E3F1E085E2838380E2848381873D
S11304A085E5828786E583878AE384878DE0808B70
S11304B08AE0818B0E9429030E94DD020E947E0251
S11304C00E94AB009091A201892F82708093490110
S11304D08111F0CF92609093A2011092D7010E94F3
S11304E08F01E8CFECEAF0E083E1808380818064CF
S11304F080838091AE008093A10108958091AD0026
S113050080788093A101882381F1E091DA01F09150
S1130510DB018091AE0080838091DA019091DB0150
S113052001969093DB018093DA018091480188233E
S1130530B1F0E091C501F091C60180818093AE00D5
S11305408091C5019091C60101969093C601809354
S1130550C501809148018150809348010895729AA1
S1130560809158018E7F809358010895809158019D
S11305708160809358017298809148018823A9F082
S1130580E091C501F091C60180818093AE00809115
S1130590C5019091C60101969093C6018093C5014F
S11305A080914801815080934801089582E084BD80
S11305B085E085BD87E287BD089585B38270809309
S11305C0A1018823C1F0A99A8091D501882361F003
S11305D08091D9018F5F843119F08093D90104C0CF
S11305E01092D9011092D5018091DC01882319F071
S11305F081508093DC0108951F920F920FB60F92E1
S113060011248F939F93EF93FF931092D9018091BC
S1130610D5019091C600E82FF0E0E358FE4F908397
S1130620803118F48F5F8093D501FF91EF919F91F2
S11306308F910F900FBE0F901F9018951092C500C8
S113064083E38093C40088E98093C1001092D601AB
S113065008958091D601811115C08091A201982F2F
S113066098709093A101992349F1877F8093A20107
S113067082E18093D60186E391E0909357018093C1
S1130680560108958091C00080728093A10188234F
S1130690A9F0E0915601F091570180818093C60042
S11306A08091560190915701019690935701809340
S11306B056018091D60181508093D6010895F89413
S10506C0FFCF66
S11306C281818D00A50092FF8185810081808181D5
S11306D2898F8A198B2B8C239D239EB49FFFA000A4
S11306E2A108A20AA3FFA401B103B327B70ADA87B8
S10906F2000000000000FE
S9030000FC
