S00F00004C6F52615F54582E737265639C
S11300000C946E000C948B000C948B000C948B005D
S11300100C948B000C948B000C948B000C948B0030
S11300200C948B000C948B000C948B000C948B0020
S11300300C948B000C948B000C948B000C948B0010
S11300400C948B000C948B000C948B000C948B0000
S11300500C948B000C948B000C948B000C948B00F0
S11300600C948B000C948B000C948B000C948B00E0
S11300700C948B000C948B000C948B000C948B00D0
S11300800C948B000C948B000C948B000C948B00C0
S11300900C948B000C948B000C948B000C948B00B0
S11300A00C948B000C948B000C948B000C948B00A0
S11300B00C948B004E040D04FF03610461044E0490
S11300C0C103D703F70361044E04AB03B803490427
S11300D0C103D703F70361044E043B0411241FBE7C
S11300E0CFEFD8E0DEBFCDBF11E0A0E0B1E0ECE49B
S11300F0F9E002C005900D92A633B107D9F721E0CB
S1130100A6E3B1E001C01D92A83BB207E1F70E944B
S1130110C0020C94A4040C94000085E680937C0037
S1130120E4E6F0E080818E7F8083EAE7F0E087E90F
S11301308083808180648083089580917A008071B7
S113014080937301882361F0EAE7F0E080818061A5
S113015080838091790080936E01808180648083A4
S11301600895CF92DF92EF92FF92CF93DF93809125
S1130170B7018111CDC080916D01817080937301AD
S11301808111C6C090917C01892F81708093730185
S11301908111BEC08091B301823001F128F488231B
S11301A051F0813099F0B4C0833009F49BC084309D
S11301B009F4A7C0ADC00E948F018091B3018F5F85
S11301C08093B3018AE08093B701A2C00E94980192
S11301D08091B3018F5F8093B3019AC0C4E7D1E0EB
S11301E02881822F90E0A0E0B0E0BA2FA92F982FA9
S11301F08827AC01BD0144275F736627772789816F
S11302009A01AB01282BA4E6B0E00E948A040F2EC9
S1130210CC24CA94FFE3DF2EE12CF12CF02DA701AE
S113022096010E9462042093A3014A8150E060E099
S113023070E0762F652F542F44278B81482B9A0129
S1130240AB0156954795379527955695479537951C
S11302502795A5EAB0E00E948A04A70196010E94AE
S11302606204109273012832310541055105E0F40E
S113027020936F0130937001409371015093720188
S113028088E290E0A0E0B0E0821B930BA40BB50BD6
S11302908093690190936A01A0936B01B0936C0100
S11302A080E8809373010DC0DA01C9018897A10920
S11302B0B1098093690190936A01A0936B01B09393
S11302C06C01E3EAF1E09091690180917301892B5B
S11302D0818380916E0182838091B3018F5F8093CB
S11302E0B30116C0E3EAF1E091818081890F928124
S11302F0890F81878AE58093B70184E08093B301F5
S113030007C0916090937C011092AF011092B301E9
S1130310DF91CF91FF90EF90DF90CF9008958EE41E
S113032080937D010E94780383E1809336010895D0
S11303308FE480937D0184E08093B6010E9484035E
S113034008958CE08DB986E087B980EE8AB981E0A2
S113035084B9729A429A28985F9A8BB18F798BB933
S113036008958BB1807280937301882311F05D9896
S113037008955D9A08955F98289A089542983A9846
S1130380089589E491E09093A1018093A00180E80D
S113039091E09093B5018093B40182E0809337019A
S11303A00E943E03089590917C01892F817080936F
S11303B03801882309F4A4C0809148018170809396
S11303C0380181119DC08091AF01823009F44DC084
S11303D028F4882361F08130C9F00895843009F449
S11303E06FC008F45FC0853009F479C008950E9495
S11303F0B1010E94BB0188E08093A20110927E01AA
S11304008091AF018F5F8093AF01089580917E0149
S1130410A9E4B1E0E82FF0E0E050FF4F90819C9315
S11304209091A201E1E0E80FF0E0E050FF4F20815D
S113043011962C938E5F80937E018EEF890F8093AB
S1130440A2010E94C1018091A201811159C08AE0D8
S11304508093A20110927E0180E8809349018091EB
S1130460AF018F5F8093AF01089580917E01E82FE3
S1130470F0E0ED55FE4F908190934A018F5F809399
S11304807E018091A20181508093A2010E94C1014A
S11304908091A201811134C08091AF018F5F80935C
S11304A0AF010895E9E4F1E081E8808383E8818382
S11304B00E94C1018091AF018F5F8093AF010895C5
S11304C0E9E4F1E082E180831182109281010E94CB
S11304D0C1018091AF018F5F8093AF010895E0E87F
S11304E0F1E0818188708183811104C084E080936C
S11304F0AF01089586E08093AF019E7F90937C01C5
S1130500089581E0809338010E9406038091480198
S11305108170809338018111F7CF089589E491E0C7
S11305209093A1018093A00180E891E09093B5019C
S11305308093B40182E0809337010E943E030E94BD
S113054081020895CF93DF9380E0C9E4D1E0E82FDE
S1130550F0E0E65FFE4F90819883E1E0E80FF0E081
S1130560E65FFE4F908199838E5F8093B2010E9473
S11305708E028091B201863250F3DF91CF910895BB
S1130580E1E6F0E080E8808310820E94A1010E94ED
S11305908D000E94FA020E9474030E945E03789404
S11305A083E08093B7010E9465038091B7018111B4
S11305B0FACF0E94BE0185E08093B7010E946503D3
S11305C08091B7018111FACF0E94A2021092A30177
S11305D081E0809373011092AF010E9465030E9431
S11305E09D000E9490030E9406030E94D3010E9472
S11305F0B100F3CFECEAF0E083E180838081806492
S113060080838091AE008093730108958091AD0042
S1130610807880937301882381F1E091B401F09193
S1130620B5018091AE0080838091B4019091B501B1
S113063001969093B5018093B4018091370188238A
S1130640B1F0E091A001F091A10180818093AE000E
S11306508091A0019091A10101969093A1018093B2
S1130660A001809137018150809337010895729AD7
S1130670809148018E7F80934801089580914801BC
S11306808160809348017298809137018823A9F092
S1130690E091A001F091A10180818093AE0080914E
S11306A0A0019091A10101969093A1018093A001D2
S11306B080913701815080933701089582E084BD91
S11306C085E085BD87E287BD089585B382708093F8
S11306D07301882341F0A99A8091B701882319F006
S11306E081508093B701089580E28093D8000895E3
S11306F081E08093360180916D01816080936D016A
S113070084EA8093DC00089586E08093360180912A
S11307106D01816080936D0184EA8093DC0008950B
S11307208091DC00807880937301882309F4C9C028
S11307302091D900287F20937301E09136018E2FF8
S113074090E0FC013197E431F10508F0BAC0E65AB3
S1130750FF4F0C948404809145018093DB0084E86E
S11307608093DC00809136018F5F80933601089579
S113077084EA8093DC00809136018F5F8093360198
S11307800895283459F484E98093DC0080916D0144
S11307908E7F80936D0110923601089584EC8093CE
S11307A0DC00809136018F5F80933601089580913B
S11307B0B1019091DB00E82FF0E0EC58FE4F9083FC
S11307C08F5F8093B1018091B60181508093B6010F
S11307D0813049F484E88093DC00809136018F5F96
S11307E080933601089584EC8093DC000895809111
S11307F0DB00E091B101F0E0EC58FE4F808384E926
S11308008093DC0080916D018E7F80936D018091D7
S113081036018F5F809336010895283111F0283214
S1130820E9F4E091B101F0E0EC58FE4F808180934F
S1130830DB0084E88093DC008091B60181508093D2
S1130840B6019091B1019F5F9093B101811139C0BC
S1130850809136018F5F809336010895203241F4F0
S113086084E98093DC0080916D018E7F80936D011B
S113087010923601089584E98093DC0080916D0123
S11308808E7F80936D01809136018F5F8093360156
S1130890089580917D01816080937D01283019F055
S11308A010923601089580917D018093DB0084E8E5
S11308B08093DC001092B101809136018F5F8093A8
S11308C036010895A1E21A2EAA1BBB1BFD010DC01F
S11308D0AA1FBB1FEE1FFF1FA217B307E407F507EC
S11308E020F0A21BB30BE40BF50B661F771F881FC8
S11308F0991F1A9469F760957095809590959B015E
S1130900AC01BD01CF010895EE0FFF1F0590F491D6
S1130910E02D09940E949504A59F900DB49F900D1D
S1130920A49F800D911D11240895A29FB001B39F2F
S1130930C001A39F700D811D1124911DB29F700DE4
S10F0940811D1124911D0895F894FFCF2F
S113094C81818D008E0092FF818381008180818161
S113095C898F8A198B2B8C239D239EB49FFFA00017
S113096CA108A20AA3FFA401B103B327B70ADA872B
S109097C00000000000071
S9030000FC
