:100000000C946E000C948B000C948B000C948B0061
:100010000C948B000C948B000C948B000C948B0034
:100020000C948B000C948B000C948B000C948B0024
:100030000C948B000C948B000C948B000C948B0014
:100040000C948B000C948B000C948B000C948B0004
:100050000C948B000C948B000C948B000C948B00F4
:100060000C948B000C948B000C948B000C948B00E4
:100070000C948B000C948B000C948B000C948B00D4
:100080000C948B000C948B000C948B000C948B00C4
:100090000C948B000C948B000C948B000C948B00B4
:1000A0000C948B000C948B000C948B000C948B00A4
:1000B0000C948B004E040D04FF03610461044E0494
:1000C000C103D703F70361044E04AB03B80349042B
:1000D000C103D703F70361044E043B0411241FBE80
:1000E000CFEFD8E0DEBFCDBF11E0A0E0B1E0ECE49F
:1000F000F9E002C005900D92A633B107D9F721E0CF
:10010000A6E3B1E001C01D92A83BB207E1F70E944F
:10011000C0020C94A4040C94000083E680937C003D
:10012000E4E6F0E080818E7F8083EAE7F0E087E913
:100130008083808180648083089580917A008071BB
:1001400080937C01882361F0EAE7F0E080818061A0
:10015000808380917900809377018081806480839F
:100160000895CF92DF92EF92FF92CF93DF93809129
:10017000B7018111CDC080913801817080937C01DD
:100180008111C6C090917E01892F817080937C017E
:100190008111BEC08091B301823001F128F488231F
:1001A00051F0813099F0B4C0833009F49BC08430A1
:1001B00009F4A7C0ADC00E948F018091B3018F5F89
:1001C0008093B3018AE08093B701A2C00E94980196
:1001D0008091B3018F5F8093B3019AC0C7E4D1E0EF
:1001E0002881822F90E0A0E0B0E0BA2FA92F982FAD
:1001F0008827AC01BD0144275F7366277727898173
:100200009A01AB01282BA4E6B0E00E948A040F2ECD
:10021000CC24CA94FFE3DF2EE12CF12CF02DA701B2
:1002200096010E9462042093A4014A8150E060E09C
:1002300070E0762F652F542F44278B81482B9A012D
:10024000AB01569547953795279556954795379520
:100250002795A5EAB0E00E948A04A70196010E94B2
:10026000620410927C012832310541055105E0F409
:10027000209378013093790140937A0150937B0168
:1002800088E290E0A0E0B0E0821B930BA40BB50BDA
:100290008093730190937401A0937501B0937601DC
:1002A00080E880937C010DC0DA01C9018897A1091B
:1002B000B1098093730190937401A0937501B09379
:1002C0007601E4EAF1E09091730180917C01892B41
:1002D00081838091770182838091B3018F5F8093C6
:1002E000B30116C0E4EAF1E091818081890F928127
:1002F000890F81878AE58093B70184E08093B301F9
:1003000007C0916090937E011092B0011092B301EA
:10031000DF91CF91FF90EF90DF90CF9008958EE422
:100320008093B6010E94780383E18093370108959A
:100330008FE48093B60184E0809336010E948403A9
:1003400008958CE08DB986E087B980EE8AB981E0A6
:1003500084B9729A429A28985F9A8BB18F798BB937
:1003600008958BB1807280937C01882311F05D9891
:1003700008955D9A08955F98289A089542983A984A
:10038000089582E591E09093A2018093A10181E814
:1003900091E09093B5018093B40182E0809339019C
:1003A0000E943E03089590917E01892F8170809371
:1003B0003A01882309F4A4C080915101817080938F
:1003C0003A0181119DC08091B001823009F44DC085
:1003D00028F4882361F08130C9F00895843009F44D
:1003E0006FC008F45FC0853009F479C008950E9499
:1003F000B1010E94BB0188E08093A30110927F01AC
:100400008091B0018F5F8093B001089580917F014A
:10041000A2E5B1E0E82FF0E0E050FF4F90819C931F
:100420009091A301E1E0E80FF0E0E050FF4F208160
:1004300011962C938E5F80937F018EEF890F8093AE
:10044000A3010E94C1018091A301811159C08AE0DA
:100450008093A30110927F0180E8809352018091E4
:10046000B0018F5F8093B001089580917F01E82FE4
:10047000F0E0EC55FE4F9081909353018F5F809395
:100480007F018091A30181508093A3010E94C1014B
:100490008091A301811134C08091B0018F5F80935E
:1004A000B0010895E2E5F1E081E8808383E881838B
:1004B0000E94C1018091B0018F5F8093B0010895C7
:1004C000E2E5F1E082E180831182109282010E94D4
:1004D000C1018091B0018F5F8093B0010895E1E880
:1004E000F1E0818188708183811104C084E0809370
:1004F000B001089586E08093B0019E7F90937E01C5
:10050000089581E080933A010E9406038091510191
:10051000817080933A018111F7CF089582E591E0CF
:100520009093A2018093A10181E891E09093B5019D
:100530008093B40182E0809339010E943E030E94BF
:1005400081020895CF93DF9380E0C2E5D1E0E82FE8
:10055000F0E0E65FFE4F90819883E1E0E80FF0E085
:10056000E65FFE4F908199838E5F8093B2010E9477
:100570008E028091B201863250F3DF91CF910895BF
:10058000E1E6F0E080E8808310820E94A1010E94F1
:100590008D000E94FA020E9474030E945E03789408
:1005A00083E08093B7010E9465038091B7018111B8
:1005B000FACF0E94BE0185E08093B7010E946503D7
:1005C0008091B7018111FACF0E94A2021092A4017A
:1005D00081E080937C011092B0010E9465030E942B
:1005E0009D000E9490030E9406030E94D3010E9476
:1005F000B100F3CFECEAF0E083E180838081806496
:1006000080838091AE0080937C0108958091AD003D
:10061000807880937C01882381F1E091B401F0918E
:10062000B5018091AE0080838091B4019091B501B5
:1006300001969093B5018093B4018091390188238C
:10064000B1F0E091A101F091A20180818093AE0010
:100650008091A1019091A20101969093A2018093B3
:10066000A101809139018150809339010895729AD6
:10067000809151018E7F80935101089580915101A5
:100680008160809351017298809139018823A9F08B
:10069000E091A101F091A20180818093AE00809150
:1006A000A1019091A20101969093A2018093A101D2
:1006B00080913901815080933901089582E084BD91
:1006C00085E085BD87E287BD089585B382708093FC
:1006D0007C01882341F0A99A8091B701882319F001
:1006E00081508093B701089580E28093B800089507
:1006F00081E08093370180913801816080933801D7
:1007000084EA8093BC00089586E08093370180914D
:10071000380181608093380184EA8093BC00089599
:100720008091BC00807880937C01882309F4C9C043
:100730002091B900287F20937C01E09137018E2F12
:1007400090E0FC013197E431F10508F0BAC0E65AB7
:10075000FF4F0C94840480917D018093BB0084E85A
:100760008093BC00809137018F5F8093370108959B
:1007700084EA8093BC00809137018F5F80933701BA
:100780000895283459F484E98093BC00809138019D
:100790008E7F8093380110923701089584EC809306
:1007A000BC00809137018F5F80933701089580915D
:1007B00072019091BB00E82FF0E0E95BFE4F90835F
:1007C0008F5F809372018091360181508093360152
:1007D000813049F484E88093BC00809137018F5FB9
:1007E00080933701089584EC8093BC000895809134
:1007F000BB00E0917201F0E0E95BFE4F808384E989
:100800008093BC00809138018E7F80933801809165
:1008100037018F5F809337010895283111F0283216
:10082000E9F4E0917201F0E0E95BFE4F8081809392
:10083000BB0084E88093BC00809136018150809396
:100840003601909172019F5F90937201811139C0BE
:10085000809137018F5F809337010895203241F4F2
:1008600084E98093BC00809138018E7F80933801A9
:1008700010923701089584E98093BC00809138017B
:100880008E7F80933801809137018F5F809337018D
:1008900008958091B60181608093B601283019F0E7
:1008A0001092370108958091B6018093BB0084E8CF
:1008B0008093BC0010927201809137018F5F80930A
:1008C00037010895A1E21A2EAA1BBB1BFD010DC022
:1008D000AA1FBB1FEE1FFF1FA217B307E407F507F0
:1008E00020F0A21BB30BE40BF50B661F771F881FCC
:1008F000991F1A9469F760957095809590959B0162
:10090000AC01BD01CF010895EE0FFF1F0590F491DA
:10091000E02D09940E949504A59F900DB49F900D21
:10092000A49F800D911D11240895A29FB001B39F33
:10093000C001A39F700D811D1124911DB29F700DE8
:0C094000811D1124911D0895F894FFCF33
:10094C0081818D008E0092FF818381008180818165
:10095C00898F8A198B2B8C239D239EB49FFFA0001B
:10096C00A108A20AA3FFA401B103B327B70ADA872F
:06097C0000000000000075
:00000001FF
